:020000040800F2
:10000000000008243D840008293700083137000823
:100010003937000841370008493700080000000060
:10002000000000000000000000000000E5320008B1
:100030005137000800000000A1320008D13100084B
:100040008D8400088D8400088D8400088D8400084C
:100050008D8400088D8400088D8400088D8400083C
:100060008D8400088D8400088D8400088D8400082C
:100070008D8400088D8400088D8400088D8400081C
:100080008D8400088D8400088D8400088D8400080C
:100090008D8400088D8400088D8400088D840008FC
:1000A0008D840008613700088D8400088D84000865
:1000B0008D8400088D8400088D8400088D840008DC
:1000C0008D8400088D8400088D8400088D840008CC
:1000D0008D8400088D8400088D8400088D840008BC
:1000E0008D8400088D840008000000008D840008C5
:1000F000753700088D8400088D8400088D84000801
:100100008D8400088D8400088D8400088D8400088B
:100110008D8400088D8400088D8400088D8400087B
:100120008D8400088D8400088D8400088D8400086B
:100130008D8400088D8400088D8400088D8400085B
:1001400000000000000000000000000000000000AF
:100150008D8400088D8400088D8400088D8400083B
:100160008D8400088D8400088D8400088D8400082B
:100170008D8400088D8400088D8400088D8400081B
:100180008D8400088D8400088D8400088D8400080B
:100190008D8400088D8400088D8400088D840008FB
:1001A0008D8400088D8400088D8400088D840008EB
:1001B0008D8400088D8400088D8400088D840008DB
:1001C0008D8400088D8400088D8400088D840008CB
:1001D0008D8400088D8400088D8400088D840008BB
:1001E0008D8400088D8400088D8400088D840008AB
:1001F0008D8400088D8400088D8400088D8400089B
:100200008D8400088D8400088D8400088D8400088A
:100210008D8400088D8400088D8400088D8400087A
:100220008D8400088D8400088D8400080000000083
:100230008D8400088D840008000000008D84000873
:100240008D8400088D8400088D8400088D8400084A
:100250008D8400088D8400088D8400088D8400083A
:100260008D8400088D8400088D8400088D8400082A
:100270008D8400088D8400088D8400080000000033
:100280008D8400088D8400088D8400080000000023
:08029000000000008D8400084D
:1002980053B94AB9002908BF00281CBF4FF0FF31E5
:1002A8004FF0FF3000F00CB8ADF1080C6DE904CE4A
:1002B80009F006FDDDF804E0DDE9022304B070472B
:1002C800704700BF0348044B834202D0034B03B17D
:1002D80018477047680000246800002400000000E8
:1002E8000548064B1B1AD90F01EBA301491002D090
:1002F800034B03B1184770476800002468000024C6
:100308000000000010B5064C237843B9FFF7DAFF68
:10031800044B13B10448AFF300800123237010BDD0
:10032800680000240000000004A0000808B5054B80
:100338001BB105490548AFF30080BDE80840FFF749
:10034800CFBF00BF000000006C00002404A000081C
:1003580080B596B000AFF860B9607A60FB68083382
:1003680093ED006BBB68103393ED007B26EE076BB3
:10037800BB68083393ED005BFB68103393ED007B9B
:1003880025EE077B36EE477B87ED087BBB6893ED50
:10039800006BFB68103393ED007B26EE076BFB6860
:1003A80093ED005BBB68103393ED007B25EE077B74
:1003B80036EE477B87ED0A7BFB6893ED006BBB68E5
:1003C800083393ED007B26EE076BBB6893ED005B6B
:1003D800FB68083393ED007B25EE077B36EE477B01
:1003E80087ED0C7B7B6803F13001FB68D3E90023C0
:1003F800C1E900237B6803F11801D7E90823C1E9A3
:100408000023FB6808337A6802F13801D3E9002336
:10041800C1E900237B6803F12001D7E90A23C1E978
:100428000023FB6810337A6802F14001D3E9002306
:10043800C1E900237B6803F12801D7E90C23C1E94E
:10044800002397ED0A6BFB68103393ED007B26EED3
:10045800076BFB68083393ED005B97ED0C7B25EE8B
:10046800077B36EE477B7B6883ED007BFB6893ED6B
:10047800006B97ED0C7B26EE076B97ED085BFB682E
:10048800103393ED007B25EE077B7B68083336EE4F
:10049800477B83ED007B97ED086BFB68083393ED92
:1004A800007B26EE076BFB6893ED005B97ED0A7BFC
:1004B80025EE077B7B68103336EE477B83ED007BA8
:1004C80000237B6515E07B6DDB007A681344D3E974
:1004D8000023C7E90E2397ED0E7B27EE077B9C4A86
:1004E8007B6DCF33DB00134483ED007B7B6D0133E1
:1004F8007B657B6D082BE6DD00237B652FE07A6D3D
:1005080013465B0013443B653B6D0133904ACF3380
:10051800DB00134493ED006B8D4A3B6DCF33DB005A
:10052800134493ED007B36EE076B3B6D0233884A2C
:10053800CF33DB00134493ED007B36EE077BB0EE40
:10054800470B07F0F9FFB0EE407B7B6DDB005833BB
:100558003B44383B83ED007B7B6D01337B657B6DD2
:10056800022BCCDD482279687A4809F039FD00234E
:100578007B6551E07B6DDB0058333B44383BD3E966
:100588000023C7E90E237A6D13465B001344704AB3
:10059800CF33DB00134493ED005B7A6D13465B00A9
:1005A8001344DB001A467B68134497ED0E6B85EE07
:1005B800067B83ED007B7A6D13465B0013440133A1
:1005C8003B65634A3B6DCF33DB00134493ED005B1F
:1005D8003B6DDB007A68134497ED0E6B85EE067B66
:1005E80083ED007B7A6D13465B00134402333B6551
:1005F800574A3B6DCF33DB00134493ED005B3B6DF3
:10060800DB007A68134497ED0E6B85EE067B83ED6D
:10061800007B7B6D01337B657B6D022BAADD00239C
:100628007B6514E07B6DDB007A68134493ED007BF7
:10063800B0EE470B02F038FD0346194607F11402E5
:100648007B6D13440A461A707B6D01337B657B6DA5
:10065800082BE7DD00233B7400237B740023BB7465
:1006680001237B6500233B652BE07B6D7B647B6D01
:10067800BB647B6D03337B65002387F84F3014E040
:10068800BB6C013B58333B4413F8443C002B09D066
:1006980007F110023B6D134401221A70012387F8F9
:1006A8004F3002E0BB6C0133BB6497F84F30002B2E
:1006B80004D17B6C0233BA6C9A42E1DD3B6D0133A5
:1006C8003B653B6D022BD0DD002387F84E300023BD
:1006D8007B65002387F84F3010E007F110027B6D2F
:1006E80013441B78002B06D0012387F84E300123D2
:1006F80087F84F3002E07B6D01337B6597F84F3008
:10070800002B02D17B6D022BE7DD97F84E30002BD2
:100718001AD048220021786809F030FC79684FF037
:1007280000020D4BC1E900237B6803F120014FF063
:100738000002094BC1E900237B6803F140014FF037
:100748000002054BC1E9002300BF5837BD4680BDF4
:1007580088000024000700240000F03F80B58AB01C
:1007680000AFF860B9607A603B60B9684FF000028A
:10077800454BC1E9002379684FF000024FF00003B0
:10078800C1E9002339684FF000024FF00003C1E9C6
:100798000023396B4FF000024FF00003C1E900233A
:1007A800FB6893ED006BFB6893ED007B26EE076B0F
:1007B800FB68083393ED005BFB68083393ED007B1F
:1007C80025EE077B36EE076BFB68103393ED005B75
:1007D800FB68103393ED007B25EE077B36EE077B35
:1007E800B0EE470B07F0A8FE87ED080B97ED086BF6
:1007F800B0EE005B86EE057B87ED067B97ED060B7A
:1008080007F006FF87ED040B97ED087BB5EE407BFC
:10081800F1EE10FA34D097ED060B07F0B1FEB0EE0A
:10082800407BBB6883ED007BFB6893ED005B97ED35
:10083800087B85EE076B97ED047B26EE077B7B68CC
:1008480083ED007BFB68083393ED005B97ED087B35
:1008580085EE076B97ED047B26EE077B3B6883EDFF
:10086800007BFB68103393ED005B97ED087B85EE0A
:10087800076B97ED047B26EE077B3B6B83ED007BD4
:1008880000BF2837BD4680BD0000F03F00000000D3
:1008980090B5C1B002AFF860B9607A603B60FB68A0
:1008A800D3E9CE23C7E92423FB68D3E9D023C7E9DA
:1008B8002223FB68D3E9D223C7E92023FB6893F8F6
:1008C8002033002B00F06482C64AC749B868FFF796
:1008D8003FFDC64B03F5BE6313ED026BC34B03F537
:1008E800C26313ED027B36EE076BC04B03F5C6639C
:1008F80013ED027B36EE077B87ED307B97ED307B7F
:1009080037EE077BB7EE006B37EE066B97ED307B63
:1009180036EE477B87ED127BB44B03F5BE6313EDD0
:10092800027B37EE077BB7EE006B37EE066B97ED71
:10093800307B36EE477B87ED147BAC4B03F5C26307
:1009480013ED027B37EE077BB7EE006B37EE066BD5
:1009580097ED307B36EE477B87ED167BA34B03F58F
:10096800C66313ED027B37EE077BB7EE006B37EEFD
:10097800066B97ED307B36EE477B87ED187B97ED5E
:10098800127BB0EE470B02F08FFB0346002B03D11E
:100998000123C7F8A8302EE00023C7F8A8300223A7
:1009A800C7F8AC30002387F89F301CE0D7F8AC308C
:1009B800013BDB00F8333B44B03B93ED007BB0EEEA
:1009C800470B02F071FB0346002B07D1D7F8AC3078
:1009D800C7F8A830012387F89F3004E0D7F8AC3077
:1009E8000133C7F8AC3097F89F30002B03D1D7F804
:1009F800AC30042BDADDD7F8A830002B07D1D7E9C3
:100A08001223C7E930230123C7F8A8303DE0D7F8FF
:100A1800A830013BDB00F8333B44B03BD3E900236B
:100A2800C7E93023D7F8A830C7F8A430D7F8A830DA
:100A38000133C7F8AC3020E0D7F8AC30013BDB001D
:100A4800F8333B44B03BD3E90023C7E9322397EDA1
:100A5800306B97ED327BB4EEC76BF1EE10FA07D529
:100A6800D7E93223C7E93023D7F8AC30C7F8A43028
:100A7800D7F8AC300133C7F8AC30D7F8AC30042B1A
:100A8800DADDD7F8A430C7F8A830D7F8A830032B98
:100A980000F0AE80D7F8A830032B00F3F980D7F820
:100AA800A830012B04D0D7F8A830022B4DD0EFE0A6
:100AB80097ED300B07F040FD87ED320B97ED327B59
:100AC800B6EE006B27EE067B87ED307BB6EE005B5B
:100AD80097ED326B85EE067B87ED387B434B03F54C
:100AE800C46393ED006B414B03F5C26393ED007B48
:100AF80036EE477B97ED386B26EE077B87ED327B2A
:100B08003A4B03F5C06313ED026B384B03F5C4632E
:100B180013ED027B36EE477B97ED386B26EE077BAD
:100B280087ED367B314B03F5C06393ED006B2F4B9C
:100B380003F5BE6393ED007B36EE477B97ED386B8C
:100B480026EE077B87ED387BEFE097ED300B07F05B
:100B5800F3FC87ED300B97ED307BB6EE006B27EE9C
:100B6800067B87ED327BB6EE005B97ED306B85EE4A
:100B7800067B87ED387B1D4B03F5C46393ED006B53
:100B88001A4B03F5C26393ED007B36EE477B97ED76
:100B9800386B26EE077B87ED307B144B03F5BE637D
:100BA80093ED006B114B03F5C06393ED007B36EEBC
:100BB800077B97ED386B26EE077B87ED367B0B4B73
:100BC80003F5C06313ED026B084B03F5C46313ED23
:100BD800027B36EE077B97ED386B26EE077B87EDB9
:100BE800387BA2E07006002428A0000888000024B2
:100BF80097ED300B07F0A0FC87ED300B97ED307BBD
:100C0800B6EE006B27EE067B87ED367BB6EE005B13
:100C180097ED306B85EE067B87ED387B1B4B03F534
:100C2800C06313ED026B194B03F5C46313ED027B2C
:100C380036EE477B97ED386B26EE077B87ED307BEA
:100C4800124B03F5BE6393ED006B104B03F5C063C5
:100C580093ED007B36EE077B97ED386B26EE077B2E
:100C680087ED327B094B03F5C26393ED006B074BAD
:100C780003F5C46393ED007B36EE077B97ED386B85
:100C880026EE077B87ED387B4FE000BF8800002405
:100C980097ED300B07F050FC87ED300B97ED307B6C
:100CA800B6EE006B27EE067B87ED387BB6EE005B71
:100CB80097ED306B85EE067B87ED367BBB4B03F5F6
:100CC800C06393ED006BB94B03F5BE6393ED007BF6
:100CD80036EE477B97ED366B26EE077B87ED307B4C
:100CE800B24B03F5C06313ED026BB04B03F5C4635D
:100CF80013ED027B36EE077B97ED366B26EE077B0E
:100D080087ED327BA94B03F5C26393ED006BA74BCC
:100D180003F5C46393ED007B36EE077B97ED366BE6
:100D280026EE077B87ED367B00BF97ED307BB5EE6F
:100D3800C07BF1EE10FA17D597ED307BB1EE477B0B
:100D480087ED307B97ED327BB1EE477B87ED327BC9
:100D580097ED367BB1EE477B87ED367B97ED387B99
:100D6800B1EE477B87ED387BF968D7E93023C1E9D5
:100D7800C023F968D7E93223C1E9C223F968D7E962
:100D88003623C1E9C423F968D7E93823C1E9C62362
:100D98007B6893ED006BFB6893EDCE7B36EE476B7B
:100DA800FB6893EDCA7B26EE077B87ED0C7B7B689F
:100DB800083393ED006BFB6893EDD07B36EE476B01
:100DC800FB6893EDCA7B26EE077B87ED0E7B7B687D
:100DD800103393ED006BFB6893EDD27B36EE476BD7
:100DE800FB6893EDCA7B26EE077B87ED107B07F146
:100DF800180407F1200207F1100107F1300007F18C
:100E0800280300932346FFF7A9FCFB6893EDC06B0A
:100E180097ED047B26EE076BFB6893EDC25B97EDBD
:100E2800087B25EE077B36EE476BFB6893EDC45BCA
:100E380097ED067B25EE077B36EE476BFB6893ED57
:100E4800C65B97ED0A7B25EE077B36EE477B87ED81
:100E5800367BFB6893EDC06B97ED087B26EE076B3E
:100E6800FB6893EDC25B97ED047B25EE077B36EEBE
:100E7800076BFB6893EDC45B97ED0A7B25EE077B58
:100E880036EE076BFB6893EDC65B97ED067B25EEA8
:100E9800077B36EE477B87ED387BFB6893EDC06BAD
:100EA80097ED067B26EE076BFB6893EDC25B97ED2B
:100EB8000A7B25EE077B36EE476BFB6893EDC45B38
:100EC80097ED047B25EE077B36EE076BFB6893ED09
:100ED800C65B97ED087B25EE077B36EE077B87ED33
:100EE8003C7BFB6893EDC06B97ED0A7B26EE076BA6
:100EF800FB6893EDC25B97ED067B25EE077B36EE2C
:100F0800076BFB6893EDC45B97ED087B25EE077BC9
:100F180036EE476BFB6893EDC65B97ED047B25EED9
:100F2800077B36EE077B87ED3A7BFB6893EDC06B5A
:100F380097ED047B26EE076BFB6893EDC25B97ED9C
:100F4800087B25EE077B36EE476BFB6893EDC45BA9
:100F580097ED067B25EE077B36EE476BFB6893ED36
:100F6800C65B97ED0A7B25EE077B36EE477BB5EE31
:100F7800C07BF1EE10FA1BD597ED367BB1EE477BBF
:100F880087ED367B97ED387BB1EE477B87ED387B75
:100F980097ED3C7BB1EE477B87ED3C7B97ED3A7B49
:100FA800B1EE477B87ED3A7B02E000BF8800002462
:100FB80097ED367B27EE076B97ED387B27EE077B9F
:100FC80036EE076B97ED3C7B27EE077B36EE076B1B
:100FD80097ED3A7B27EE077B36EE077BB0EE470BA3
:100FE80007F0AAFAB0EE407B87ED047B97ED046B1F
:100FF80097ED365B85EE067B87ED1E7B97ED046BE0
:1010080097ED385B85EE067B87ED327B97ED046BB9
:1010180097ED3C5B85EE067B87ED087B97ED046BCF
:1010280097ED3A5B85EE067B87ED347B97ED326B67
:1010380097ED347B26EE077B37EE076B97ED085B61
:1010480097ED1E7B25EE077B37EE077B36EE477B59
:101058009FEDC36B27EE067B87ED047BFB6893ED62
:101068000A6BFB6893EDD47B26EE077B87ED307B1C
:1010780097ED086B97ED347B26EE077B37EE076B11
:1010880097ED1E5B97ED327B25EE077B37EE077BEE
:1010980036EE077B9FEDB26B27EE067B87ED087B6C
:1010A800FB6893ED0A6BFB6893EDD67B26EE077B16
:1010B80087ED327B97ED1E7B27EE077B37EE077BAC
:1010C800B7EE006B37EE466B97ED347B27EE077B68
:1010D80037EE077B36EE077B9FEDA16B27EE067B8D
:1010E80087ED067BFB6893ED0A6BFB6893EDD87B75
:1010F80026EE077B87ED1E7B482200219A4808F0E0
:101108003DFFD7E90623994901F5C061C1E90023EC
:1011180097ED087BB1EE477B944B03F5C46303ED71
:10112800027BD7E90423914901F5C461C1E9002391
:101138000023C7F8AC3061E0D7F8AC2013465B0059
:101148009818D7F8AC2013465B009918874A00F125
:10115800BD03DB001344D3E900238448C631C9002A
:101168000144C1E90023D7F8AC2013465B001344BF
:101178000133C7F8A8307D4AD7F8A830BD33DB0063
:10118800134493ED006BD7F8AC300333774ABD3383
:10119800DB00134493ED007B36EE477B734AD7F8A8
:1011A800A830C633DB00134483ED007BD7F8AC20AE
:1011B80013465B0013440233C7F8A8306B4AD7F8CC
:1011C800A830BD33DB00134493ED006BD7F8AC3087
:1011D8000633664ABD33DB00134493ED007B36EEDD
:1011E800477B624AD7F8A830C633DB00134483ED47
:1011F800007BD7F8AC300133C7F8AC30D7F8AC3047
:10120800022B99DD0023C7F8AC306CE0574AD7F8B9
:10121800AC30C633DB001344D3E90023C7E93423D9
:10122800524AD7F8AC305133DB00D118D7E9342310
:10123800C1E9002397ED347BB1EE476BFB6893ED72
:10124800CC7BD7F8AC30093326EE077B474A5133BD
:10125800DB00134483ED007B454AD7F8AC301344D8
:1012680093F90020D7F8AC30123307EE902AB8EE85
:10127800E77B3E4A5133DB00134483ED007BD7F80C
:10128800AC2013465B001344384A6C33DB00D1189A
:101298004FF000024FF00003C1E90023D7F8AC205B
:1012A80013465B0013440133304A6C33DB00D1181A
:1012B8004FF000024FF00003C1E90023D7F8AC203B
:1012C80013465B0013440233284A6C33DB00D11801
:1012D8004FF000024FF00003C1E90023D7F8AC300B
:1012E8000133C7F8AC30D7F8AC30082B8EDD0023BB
:1012F800C7F8AC30BEE0D7F8AC2013465B00134407
:101308001A4A6C33DB001344D3E90023C7E90A23E4
:10131800D7F8AC2013465B0013440133C7F8A43058
:10132800124AD7F8A4306C33DB001344D3E9002306
:10133800C7E92E23D7F8AC2013465B0013440233C9
:10134800C7F8A030094AD7F8A0306C33DB00134443
:10135800D3E90023C7E92C230023C7F8A8305FE0AE
:101368001F85EB51B89E2340700600248800002496
:1013780040A00008D7F8AC201346DB001A44D7F881
:10138800A8301344FA680633DB001344D3E900237A
:10139800C7E93423D7F8A82013465B001344CD4A85
:1013A8005133DB00134493ED006B97ED347B26EE4D
:1013B800076B97ED0A7B36EE077B87ED0A7BD7F83C
:1013C800A82013465B0013440133C24A5133DB00A3
:1013D800134493ED006B97ED347B26EE077B97ED76
:1013E8002E6B36EE077B87ED2E7BD7F8A8201346A9
:1013F8005B0013440233B74A5133DB00134493EDC7
:10140800006B97ED347B26EE077B97ED2C6B36EE61
:10141800077B87ED2C7BD7F8A8300133C7F8A830B5
:10142800D7F8A830082BA5DDAA4AD7F8A0306C3326
:10143800DB00D118D7E92C23C1E90023A54AD7F846
:10144800A4306C33DB00D118D7E92E23C1E900237F
:10145800D7F8AC2013465B009918D7E90A239D48B2
:101468006C31C9000144C1E90023D7F8AC3001331D
:10147800C7F8AC30D7F8AC30082B7FF73CAF002367
:10148800C7F8AC30ADE04FF000024FF00003C7E9F9
:1014980034234FF000024FF00003C7E90A234FF04E
:1014A80000024FF00003C7E92E230023C7F8A83035
:1014B80065E0D7F8A82013465B001A44D7F8AC308B
:1014C8001344844A5133DB001344D3E90023C7E9AA
:1014D8002C23D7F8AC201346DB001A44D7F8A830E1
:1014E80013447C4AA233DB00D118D7E92C23C1E985
:1014F8000023D7F8A82013465B001344754A6C33C1
:10150800DB00134493ED006B97ED2C7B26EE077BF5
:1015180097ED346B36EE077B87ED347BD7F8A82040
:1015280013465B00134401336A4A6C33DB001344EF
:1015380093ED006B97ED2C7B26EE076B97ED0A7BFE
:1015480036EE077B87ED0A7BD7F8A82013465B00A9
:10155800134402335F4A6C33DB00134493ED006B92
:1015680097ED2C7B26EE077B97ED2E6B36EE077BEF
:1015780087ED2E7BD7F8A8300133C7F8A830D7F805
:10158800A830082B95DDD7F8AC2013465B00134430
:101598000233504AC633DB00D118D7E92E23C1E9FC
:1015A8000023D7F8AC2013465B001344591CD7E935
:1015B8000A234848C631C9000144C1E90023D7F8C5
:1015C800AC2013465B001344424AC633DB00D118F3
:1015D800D7E93423C1E90023D7F8AC300133C7F881
:1015E800AC30D7F8AC30022B7FF74DAF0023C7F8EB
:1015F800AC30CCE0374AD7F8AC30C633DB00134404
:1016080093ED006BFA68D7F8AC305733DB0013441E
:1016180093ED007BD7F8AC2013465B00134436EEFD
:10162800077B2C4ABD33DB00134483ED007BD7F8DE
:10163800AC300333274AC633DB00134493ED006B09
:10164800D7F8AC300333FA685733DB00134493ED13
:10165800007BD7F8AC2013465B001344013336EE09
:10166800077B1C4ABD33DB00134483ED007BD7F8AE
:10167800AC300633174AC633DB00134493ED006BD6
:10168800D7F8AC300633FA685733DB00134493EDD0
:10169800007BD7F8AC2013465B001344023336EEC8
:1016A800077B0C4ABD33DB00134483ED007BD7F87E
:1016B800AC201346DB0013448733DB00054A134490
:1016C80048220021184608F059FC0023C7F8A83022
:1016D80054E000BF88000024D7F8AC201346DB0094
:1016E8001A44D7F8A8301344054AA233DB00134440
:1016F800D3E90023C7E934230023C7F8A03034E036
:1017080088000024D7F8AC201346DB001344D7F830
:10171800A0201344C7F8A430E34AD7F8A43087338D
:10172800DB00134493ED006BD7F8A8201346DB00C9
:101738001A44D7F8A0301344FA680633DB00134480
:1017480093ED005B97ED347B25EE077B36EE077B48
:10175800D54AD7F8A4308733DB00134483ED007BE8
:10176800D7F8A0300133C7F8A030D7F8A030082B3D
:10177800C8DDD7F8A8300133C7F8A830D7F8A830A3
:10178800082BA9DDD7F8AC300133C7F8AC30D7F84F
:10179800AC30022B7FF72EAF0023C7F8AC30012303
:1017A800C7F8A8300223C7F8A430BF4B03F5BE63BF
:1017B80013ED027BB0EEC77B87ED347BBA4B03F5A4
:1017C800BE6393ED007BB0EEC77B87ED0A7B97ED98
:1017D8000A7B97ED346BB4EEC76BF1EE10FA09D5BE
:1017E800D7E90A23C7E934230123C7F8AC3000231B
:1017F800C7F8A830AC4B03F5C06313ED027BB0EE1D
:10180800C77B97ED346BB4EEC76BF1EE10FA08D5D1
:101818000223C7F8AC300123C7F8A8300023C7F863
:10182800A430A14AD7F8A830BD33DB00134493EDA8
:10183800005B9D4AD7F8AC30BD33DB00134493ED11
:10184800006B85EE067B984AD7F8A830BD33DB00DD
:10185800134483ED007B944AD7F8A430BD33DB00F2
:10186800134493ED005B904AD7F8AC30BD33DB00EE
:10187800134493ED006B85EE067B8B4AD7F8A430B2
:10188800BD33DB00134483ED007BD7F8A830033366
:10189800854ABD33DB00134493ED006BD7F8AC30B9
:1018A8000333814ABD33DB00134493ED005B7E4A6A
:1018B800D7F8A830BD33DB00134493ED007B25EE49
:1018C800077BD7F8A830033336EE477B764ABD331B
:1018D800DB00134483ED007BD7F8A4300333724A4E
:1018E800BD33DB00134493ED006BD7F8AC30033302
:1018F8006D4ABD33DB00134493ED005B6A4AD7F8A9
:10190800A430BD33DB00134493ED007B25EE077B49
:10191800D7F8A430033336EE477B634ABD33DB0088
:10192800134483ED007BD7F8A83006335E4ABD33F5
:10193800DB00134493ED006BD7F8AC3006335A4AFA
:10194800BD33DB00134493ED005B574AD7F8A8304A
:10195800BD33DB00134493ED007B25EE077BD7F8FE
:10196800A830063336EE477B4F4ABD33DB001344BD
:1019780083ED007BD7F8A43006334B4ABD33DB0038
:10198800134493ED006BD7F8AC300633464ABD33A9
:10199800DB00134493ED005B434AD7F8A430BD3312
:1019A800DB00134493ED007B25EE077BD7F8A430CA
:1019B800063336EE477B3C4ABD33DB00134483EDE8
:1019C800007BD7F8A4300333374ABD33DB00134418
:1019D80093ED007BB0EEC76BD7F8A8300333324ADB
:1019E800BD33DB00134493ED007BB0EEC77BB4EE50
:1019F800C76BF1EE10FA0DDDD7F8A8300133C7F840
:101A0800A030D7F8A430C7F8A830D7F8A030013BE9
:101A1800C7F8A430D7F8A4300333234ABD33DB001A
:101A2800134493ED005BD7F8A83003331E4ABD3347
:101A3800DB00134493ED006BD7F8A430033385EE35
:101A4800067B194ABD33DB00134483ED007BD7F8CE
:101A5800A4300633144ABD33DB00134493ED006B06
:101A6800D7F8A4300333104ABD33DB00134493ED99
:101A7800005BD7F8A83006330B4ABD33DB001344AC
:101A880093ED007B25EE077BD7F8A430063336EEBE
:101A9800477B054ABD33DB00134483ED007B0023FD
:101AA800C7F8A03002E000BF8800002438E1D7F86A
:101AB800AC201346DB001344D7F8A02013447B67FF
:101AC800BA4AD7F8A0308733DB00134493ED005BA4
:101AD800B64AD7F8AC30BD33DB00134493ED006B46
:101AE80085EE067BB14A7B6F5133DB00134483EDEF
:101AF800007BD7F8A8201346DB001344D7F8A020B2
:101B080013443B67D7F8A0300933A84A8733DB0072
:101B1800134493ED006BD7F8AC300333A34ABD33BD
:101B2800DB00134493ED005BA04A7B6F5133DB006D
:101B3800134493ED007B25EE077B36EE477B9B4AEB
:101B48003B6F5133DB00134483ED007BD7F8A420AF
:101B58001346DB001344D7F8A0201344FB66D7F8DC
:101B6800A0301233914A8733DB00134493ED006BA6
:101B7800D7F8AC3006338D4ABD33DB00134493ED00
:101B8800005B8A4A7B6F5133DB00134493ED007B83
:101B980025EE077B36EE477B844AFB6E5133DB002C
:101BA800134483ED007B814A3B6F5133DB001344C0
:101BB80093ED005BD7F8A83003337C4ABD33DB00D4
:101BC800134493ED006B85EE067B784A3B6F5133E7
:101BD800DB00134483ED007B744AFB6E5133DB005A
:101BE800134493ED006BD7F8A83006336F4ABD3322
:101BF800DB00134493ED005B6C4A3B6F5133DB0011
:101C0800134493ED007B25EE077B36EE477B674A4E
:101C1800FB6E5133DB00134483ED007B634AFB6E9C
:101C28005133DB00134493ED005BD7F8A43006333F
:101C38005E4ABD33DB00134493ED006B85EE067BF3
:101C48005A4AFB6E5133DB00134483ED007B574A3D
:101C58003B6F5133DB00134493ED006BD7F8A4308E
:101C68000333524ABD33DB00134493ED005B4F4A04
:101C7800FB6E5133DB00134493ED007B25EE077BAD
:101C880036EE477B494A3B6F5133DB00134483ED03
:101C9800007B464A7B6F5133DB00134493ED006BA6
:101CA800424AFB6E5133DB00134493ED005B3F4A1D
:101CB800D7F8A430BD33DB00134493ED007B25EE49
:101CC800077B36EE477B394A7B6F5133DB00134481
:101CD80083ED007B354A7B6F5133DB00134493ED72
:101CE800006B324A3B6F5133DB00134493ED005BCA
:101CF8002E4AD7F8A830BD33DB00134493ED007BA0
:101D080025EE077B36EE477B284A7B6F5133DB0095
:101D1800134483ED007BD7F8A0300133C7F8A03017
:101D2800D7F8A030082B7FF7C2AEBB6893ED006BE5
:101D380097ED307B36EE076B97ED047B36EE477BED
:101D480087ED0C7BBB68083393ED006B97ED327B16
:101D580036EE076B97ED087B36EE477B87ED0E7BFB
:101D6800BB68103393ED006B97ED1E7B36EE076B67
:101D780097ED067B36EE477B87ED107B48220021E6
:101D88000B4808F0FBF80023C7F8AC3044E0D7F85C
:101D9800AC30DB00F8333B44C83BD3E90023C7E948
:101DA80034230023C7F8A8302DE000BF88000024A2
:101DB80070060024BD4AD7F8A830BD33DB001344B1
:101DC80093ED006BD7F8AC201346DB001A44D7F824
:101DD800A8301344B54A5133DB00134493ED005B3C
:101DE80097ED347B25EE077B36EE077BAF4AD7F8B5
:101DF800A830BD33DB00134483ED007BD7F8A8304F
:101E08000133C7F8A830D7F8A830082BD2DDD7F8A7
:101E1800AC300133C7F8AC30D7F8AC30022BB6DDA4
:101E280007F1180007F1200207F1100107F1280354
:101E3800009303469E48FEF791FC97ED046B97EDDF
:101E4800367B26EE076B97ED085B97ED387B25EE22
:101E5800077B36EE076B97ED065B97ED3C7B25EE2F
:101E6800077B36EE076B97ED0A5B97ED3A7B25EE1D
:101E7800077B36EE077B87ED347BF968D7E9342397
:101E8800C1E9C02397ED087BB1EE476B97ED367B30
:101E980026EE076B97ED045B97ED387B25EE077B05
:101EA80036EE076B97ED0A7BB1EE475B97ED3C7B0F
:101EB80025EE077B36EE076B97ED065B97ED3A7BD1
:101EC80025EE077B36EE077BFB6883EDC27B97ED3B
:101ED800067BB1EE476B97ED367B26EE076B97EDE9
:101EE8000A5B97ED387B25EE077B36EE076B97ED9F
:101EF800045B97ED3C7B25EE077B36EE076B97ED91
:101F0800087BB1EE475B97ED3A7B25EE077B36EE13
:101F1800077BFB6883EDC47B97ED0A7BB1EE476BCB
:101F280097ED367B26EE076B97ED067BB1EE475BA8
:101F380097ED387B25EE077B36EE076B97ED085B50
:101F480097ED3C7B25EE077B36EE076B97ED045B40
:101F580097ED3A7B25EE077B36EE077BFB6883ED32
:101F6800C67B97ED347BB5EEC07BF1EE10FA1FD53A
:101F7800FB6893EDC07BB1EE477BFB6883EDC07BCC
:101F8800FB6893EDC27BB1EE477BFB6883EDC27BB8
:101F9800FB6893EDC47BB1EE477BFB6883EDC47BA4
:101FA800FB6893EDC67BB1EE477BFB6883EDC67B90
:101FB800FB6893EDC06BFB6893EDC07B26EE076B67
:101FC800FB6893EDC25BFB6893EDC27B25EE077B54
:101FD80036EE076BFB6893EDC45BFB6893EDC47B3F
:101FE80025EE077B36EE076BFB6893EDC65BFB6857
:101FF80093EDC67B25EE077B36EE077BB0EE470BED
:1020080006F09AFAB0EE407B87ED047BFB6893ED0F
:10201800C05B97ED046B85EE067BFB6883EDC07BA8
:10202800FB6893EDC25B97ED046B85EE067BFB685E
:1020380083EDC27BFB6893EDC45B97ED046B85EE83
:10204800067BFB6883EDC47BFB6893EDC65B97ED6D
:10205800046B85EE067BFB6883EDC67B0023C7F81F
:10206800AC3083E0D7F8AC300933104A5133DB0089
:102078001344D3E90023C7E936230C4AD7F8AC3018
:102088005133DB001344D3E90023C7E93823D7F8D9
:10209800AC301233054A5133DB001344D3E9002333
:1020A800C7E93C230023C7F8A83056E0880000247D
:1020B80070060024D7F8A8201346DB001344D7F88D
:1020C800AC201344C7F8A430FA68D7F8A430063314
:1020D800DB00134493ED006BD7F8A82013465B0090
:1020E80013440133CE4A6C33DB00134493ED005B99
:1020F80097ED367B25EE075BD7F8A82013465B00E3
:102108001344C74A6C33DB00134493ED004B97ED3F
:10211800387B24EE077B35EE075BD7F8A8201346FB
:102128005B0013440233BE4A6C33DB00134493ED67
:10213800004B97ED3C7B24EE077B35EE077B36EEB4
:10214800477BB74AD7F8A430DB00134483ED007B04
:10215800D7F8A8300133C7F8A830D7F8A830082B2B
:10216800A8DDD7F8AC300133C7F8AC30D7F8AC30BD
:10217800082B7FF777AFFB6830334FF422720021CA
:10218800184607F0FBFEFB6893EDCC6BFB6893EDFC
:10219800CC7B26EE077B87ED0A7BFB6893ED066B0D
:1021A800FB6893ED047B36EE077B87ED367B9C4B13
:1021B80093ED3C6B97ED367B36EE076B97ED0A7B1C
:1021C80026EE076B964B93ED007B36EE077BFB689C
:1021D80083ED0C7B924B93ED3C6BFB6893ED067B98
:1021E80036EE077BFB6883ED487B8D4B93ED506B98
:1021F80097ED367B36EE076B97ED0A7B26EE076B7D
:10220800874B93ED147B36EE077BFB6883ED207BD1
:10221800834B93ED506BFB6893ED067B36EE077BA3
:10222800FB6883ED5C7B7E4B93ED646B97ED367BAF
:1022380036EE076B97ED0A7B26EE076B784B93ED2E
:10224800287B36EE077BFB6883ED347B744B93ED7C
:10225800646BFB6893ED067B36EE077BFB6883EDCA
:10226800707BFB6893EDCC7BB1EE476BFB6893ED1D
:10227800487B26EE077B87ED047BFB6893EDCC7BE0
:10228800B1EE476BFB6893ED5C7B26EE077B87ED31
:10229800087BFB6893EDCC7BB1EE476BFB6893ED55
:1022A800707B26EE077B87ED067BFB6893ED0A6B58
:1022B800FB6893ED0A7B26EE077B87ED0A7BFB68BC
:1022C800002283F82023D7E90423F968C1E91223FF
:1022D800D7E90423F968C1E94223514B93ED786BA0
:1022E80097ED0A7B26EE076BFB6893ED087B36EECD
:1022F800077BFB6883ED847BFB6893EDCE6B484BD3
:1023080003F5C06393ED007B36EE477BFB6883EDF6
:10231800CE7B434B03F5C46313ED027B97ED306B23
:1023280036EE477BFB6883EDD47B7B6893ED006BCF
:1023380097ED247B36EE477BD7F8083183ED007B99
:10234800D7E90823F968C1E92623D7E90823F968FA
:10235800C1E95623324B93ED8C6B97ED0A7B26EE41
:10236800076BFB6893ED087B36EE077BFB6883ED14
:10237800987BFB6893EDD06B294B03F5C26313ED93
:10238800027B36EE477BFB6883EDD07B244B03F55D
:10239800C46393ED007B97ED326B36EE477BFB68A9
:1023A80083EDD67B7B68083393ED006BD7F8083153
:1023B800083397ED227B36EE477B83ED007BD7E928
:1023C8000623F968C1E93A23D7E90623F968C1E980
:1023D8006A23134B93EDA06B97ED0A7B26EE076BF0
:1023E800FB6893ED087B36EE077BFB6883EDAC7BDF
:1023F800FB6893EDD26B0A4B03F5C26393ED007B48
:1024080036EE477BFB6883EDD27B054B03F5C6634D
:1024180013ED027B97ED1E6B36EE477B02E000BFA3
:1024280088000024FB6883EDD87B7B68103393ED2C
:10243800006BD7F80831103397ED207B36EE477BD9
:1024480083ED007BFB68D3E9C0233968C1E9002329
:102458003B6803F10801FB68D3E9C223C1E9002303
:102468003B6803F11001FB68D3E9C423C1E90023E9
:102478003B6803F11801FB68D3E9C623C1E90023CF
:1024880000BFFC37BD4690BD80B588B000AF87ED72
:10249800020B87ED001B97ED020B00F005FE0346CB
:1024A800002B06D197ED000B00F0FEFD0346002B34
:1024B80005D0414BD3E90023C7E906236AE097ED2D
:1024C800020B00F0CDFD0346002B33D097ED000B37
:1024D80000F0C6FD0346002B2CD097ED027BB5EE2D
:1024E800C07BF1EE10FA02DD01237B6102E04FF0C0
:1024F800FF337B6197ED007BB5EEC07BF1EE10FA00
:1025080002DD01233B6102E04FF0FF333B617B6951
:1025180007EE903AB8EEE77B3B6906EE903AB8EEE4
:10252800E66BB0EE461BB0EE470B05F0D9FF87ED22
:10253800060B2FE097ED007BB5EE407BF1EE10FA2D
:1025480020D197ED027BB5EEC07BF1EE10FA05DDE8
:1025580015A3D3E90023C7E906231BE097ED027B07
:10256800B5EEC07BF1EE10FA05D511A3D3E900232F
:10257800C7E906230EE04FF000024FF00003C7E959
:10258800062307E097ED001B97ED020B05F0A8FF67
:1025980087ED060BD7E9062343EC172BB0EE470B64
:1025A8002037BD4680BD00BF182D4454FB21F93F9C
:1025B800182D4454FB21F9BF00000024000000003E
:1025C80080B5B0B002AF724BD3E90023C7E910233E
:1025D8006F4BD3E90223C7E912236D4BD3E90423D8
:1025E800C7E914236A4B93ED067B9FED5D6B27EEDD
:1025F800067B87ED0A7B664B93ED087B9FED586B56
:1026080027EE067B87ED0C7B614B93ED0A7B9FEDF4
:10261800546B27EE067B87ED0E7B5E4B93ED027BBA
:102628009FED516BB4EE467BF1EE10FA0CD0594B8E
:102638001B68012B02D1574B01221A7155494AA335
:10264800D3E90023C1E90223524B93ED047B9FEDAC
:10265800486BB4EE467BF1EE10FA0CD04D4B1B687C
:10266800012B02D14B4B01221A714A4940A3D3E9ED
:102678000023C1E90423474B93ED067B9FED3E6B96
:10268800B4EE467BF1EE10FA0CD0424B1B68012BDE
:1026980002D1404B01221A713E4937A3D3E90023E6
:1026A800C1E906233B4B93ED087B9FED356BB4EEF8
:1026B800467BF1EE10FA0CD0364B1B68012B02D189
:1026C800344B01221A7133492DA3D3E90023C1E900
:1026D8000823304B93ED0A7BB6EE006BB4EE467BD5
:1026E800F1EE10FA0CD02B4B1B68012B02D1294BB1
:1026F80001221A7127494FF00002274BC1E90A232A
:10270800244B1B79002B68D0224B00221A712149D7
:102718001DA3D3E90023C1E9CA231E491AA3D3E99B
:102728000023C1E9CC230023C7F88C300AE03A1D06
:10273800D7F88C30134400221A70D7F88C30013344
:10274800C7F88C30D7F88C30082BF0DD01233B71AB
:1027580001233B7201233B730023C7F88C3038E018
:102768008AAD84FA0A74513FBFE5D89B4B3A293F9A
:102778002DD06A58BEF4173F89C080CB8B6F553D6A
:102788007E73C1118BB5833F7B14AE47E17A943FCA
:10279800C80A0024480700240000E03F3A1DD7F883
:1027A8008C30134493F9003007EE903AB8EEE77B8B
:1027B8009FEDCD6B27EE067BD94AD7F88C3057337F
:1027C800DB00134483ED007BD7F88C300133C7F866
:1027D8008C30D7F88C30082BE0DD07F1580007F172
:1027E800280207F1400107F1100300930346CC4883
:1027F800FEF74EF897ED166B97ED167B26EE076BF6
:1028080097ED185B97ED187B25EE077B36EE076B87
:1028180097ED1A5B97ED1A7B25EE077B36EE076B73
:1028280097ED1C5B97ED1C7B25EE077B36EE077B4F
:10283800B0EE470B05F080FE87ED260B97ED165B93
:1028480097ED266B85EE067B87ED2A7B97ED185B67
:1028580097ED266B85EE067B87ED2C7B97ED1A5B53
:1028680097ED266B85EE067B87ED247B97ED1C5B49
:1028780097ED266B85EE067B87ED207B97ED2C6B1D
:1028880097ED207B26EE077B37EE076B97ED2A5BEB
:1028980097ED247B25EE077B37EE077B36EE477BEB
:1028A80087ED267B97ED267BB7EE006BB4EEC67BF3
:1028B800F1EE10FA04DD4FF000029A4BC7E9262327
:1028C800D7E92623C7E9282397ED267BBFEE006BBF
:1028D800B4EEC67BF1EE10FA04D54FF00002924B2D
:1028E800C7E9282397ED287BB5EEC07BF1EE10FAF7
:1028F80028D597ED287BB7EE006B37EE067BB0EE58
:10290800C77B9FED7B6BB4EEC67BF1EE10FA19D551
:1029180097ED2A1B97ED2C0BFFF7B6FDB0EE407B29
:10292800B8EE006B27EE067B87ED267B4FF00002A2
:102938004FF00003C7E92A236FA3D3E90023C7E9AF
:102948002C238BE097ED287BB5EEC07BF1EE10FAD7
:1029580026DD97ED287BB7EE006B37EE467BB0EEB1
:10296800C77B9FED636BB4EEC67BF1EE10FA17D50B
:1029780097ED2A1B97ED2C0BFFF786FDB0EE407BF9
:1029880037EE077B87ED267B4FF000024FF0000300
:10299800C7E92A235AA3D3E90023C7E92C235DE01A
:1029A80097ED2A7B27EE077B37EE077BB7EE006BA8
:1029B80037EE467B87ED1E7B97ED2A6B97ED207BE4
:1029C80026EE077B37EE076B97ED2C5B97ED247BA4
:1029D80025EE077B37EE077B36EE075B97ED2C7B02
:1029E80027EE077B37EE076B97ED1E7B36EE077BEE
:1029F800B0EE471BB0EE450BFFF746FD87ED260B03
:102A080097ED2A6B97ED2C7B26EE077B37EE076B4D
:102A180097ED245B97ED207B25EE077B37EE077B50
:102A280036EE075B97ED207B27EE077B37EE076BCB
:102A380097ED1E7B36EE077BB0EE471BB0EE450BDD
:102A4800FFF722FD87ED2A0B97ED280B05F01CFDFB
:102A5800B0EE407BB1EE477B87ED2C7B97ED267B74
:102A68009FED296B27EE067B87ED0A7B97ED2C7B84
:102A78009FED256B27EE067B87ED0C7B97ED2A7B78
:102A88009FED216B27EE067B87ED0E7B97ED0A7B8A
:102A98009FED1F6B37EE467B9FED1F6B37EE067B76
:102AA800B0EE470B00F000FB0346002B05D01F4B90
:102AB800D3E90023C7E9242369E097ED0A7B9FED5A
:102AC800146B37EE467B9FED146B37EE067BB0EE4A
:102AD800470B00F0C5FA0346002B29D0134BD3E966
:102AE8000023C7E9242352E0BF392D28791A843FEF
:102AF800000000000000E43C182D4454FB21F93F7D
:102B0800182D4454FB21F9BFF8C1631ADCA54C40C9
:102B18000000000000804640000000000080664081
:102B2800480700240000F03F0000F0BF0000002428
:102B380097ED0A7B9FED7E6B37EE467B9FED7E6BB4
:102B480037EE067B9FED7E1BB0EE470B05F0CCFC05
:102B580087ED240B97ED247BB5EE407BF1EE10FA60
:102B680006D14FF000024FF00003C7E924230EE01E
:102B780097ED247BB5EEC07BF1EE10FA07D597ED03
:102B8800247B9FED6F6B37EE067B87ED247B97EDFB
:102B98000C7B9FED696B37EE067BB0EE470B00F0C0
:102BA80083FA0346002B05D0674BD3E90023C7E916
:102BB8002C233DE097ED0C7B9FED5F6B37EE067B9A
:102BC800B0EE470B00F04CFA0346002B05D05E4BE5
:102BD800D3E90023C7E92C232AE097ED0C7B9FED6E
:102BE800566B37EE067B9FED561BB0EE470B05F094
:102BF8007BFC87ED2C0B97ED2C7BB5EE407BF1EE43
:102C080010FA06D14FF000024FF00003C7E92C2359
:102C18000EE097ED2C7BB5EEC07BF1EE10FA07D5F0
:102C280097ED2C7B9FED466B37EE067B87ED2C7B73
:102C380097ED0E7B9FED406B37EE067BB0EE470BB2
:102C480000F032FA0346002B05D03F4BD3E90023AE
:102C5800C7E92A233DE097ED0E7B9FED376B37EEF2
:102C6800067BB0EE470B00F0FBF90346002B05D0BE
:102C7800354BD3E90023C7E92A232AE097ED0E7BD9
:102C88009FED2D6B37EE067B9FED2D1BB0EE470BAE
:102C980005F02AFC87ED2A0B97ED2A7BB5EE407BE1
:102CA800F1EE10FA06D14FF000024FF00003C7E929
:102CB8002A230EE097ED2A7BB5EEC07BF1EE10FAE1
:102CC80007D597ED2A7B9FED1E6B37EE067B87EDC8
:102CD8002A7B97ED247B9FED186B37EE467B1B4BC9
:102CE80083ED007B97ED2C7B9FED136B37EE467BD6
:102CF800164B83ED027B97ED2A7B9FED0F6B37EE2A
:102D0800467B124B83ED047BD7E904230F49C1E9C5
:102D18000623D7E906230D49C1E90823D7E9082383
:102D28000A49C1E90A2300BFB837BD4680BD00BFC4
:102D3800000000000080464000000000008066405F
:102D4800000000000080764000000024F80A0024FB
:102D580080B584B000AF704963A3D3E90023C1E90B
:102D680002236D4962A3D3E90023C1E904236A4918
:102D780061A3D3E90023C1E90623674960A3D3E926
:102D88000023C1E9082364494FF00002634BC1E9FD
:102D98000A23614B01221A605F495BA3D3E9002330
:102DA800C1E9CA235C4958A3D3E90023C1E9CC236C
:102DB800594B00221A7158494FF00002584BC1E98B
:102DC800C02355494FF000024FF00003C1E9C22368
:102DD80051494FF000024FF00003C1E9C4234E49A6
:102DE8004FF000024FF00003C1E9C6234A494FF0F3
:102DF80000024FF00003C1E9DA2347494FF000020F
:102E08004FF00003C1E9CE2343494FF000024FF0D1
:102E18000003C1E9DC2340494FF000024FF00003F2
:102E2800C1E9D0233C494FF000024FF00003C1E94B
:102E3800DE2339494FF000024FF00003C1E9D223E5
:102E48000023FB6007E03A46FB68134400221A702F
:102E5800FB680133FB60FB68082BF4DD01233B7042
:102E680001233B7101233B720023FB6016E03A46C5
:102E7800FB68134493F9003007EE903AB8EEE77B0D
:102E88009FED236B27EE067B234AFB685733DB0055
:102E9800134483ED007BFB680133FB60FB68082B60
:102EA800E5DD4FF422721F491F4807F099F81A49C7
:102EB8004FF000024FF00003C1E9D42316494FF048
:102EC80000024FF00003C1E9D62313494FF0000276
:102ED8004FF00003C1E9D8230F4B012283F82023C8
:102EE80000BF1037BD4680BDBFE5D89B4B3A293F90
:102EF8002DD06A58BEF4173F89C080CB8B6F553DE3
:102F08007E73C1118BB5833F7B14AE47E17A943F42
:102F1800BF392D28791A843F480700240000E03F74
:102F28000000F03F50A000087807002480B400AFEC
:102F380000BFBD465DF8047B7047000080B500AF58
:102F48000F4B1B785A1CD1B20D4A1170002B09D0B7
:102F58000C4B01221A600A4B1B78013BDAB2084B72
:102F68001A700BE062B600BFFFF72AFB72B600BF0B
:102F7800034B1B78013BDAB2014B1A7080BD00BFCE
:102F8800300B00242C0B002480B584B000AF78608F
:102F980039602D4BFB604FF08543BB602B4B002203
:102FA8001A702B4B00221A7001DF03F013FE00F099
:102FB800EDF900F091F800F02DFB00F065FA00F053
:102FC800B9FA00F0DBFA234B1B6800221A60FFF7FE
:102FD800BFFE72B600BF97ED030A00F005F91D4B5E
:102FE8001B681B68002B0CBF01230023DBB21A46A9
:102FF800174B1A7062B600BF62B600BF15E0154BDA
:103008001B681B68002B14BF01230023DBB21A4680
:103018000E4B1A700D4B1B78DBB2002B05D00E4BF4
:103028001B680D4A23F001031360094B1B78DBB2C0
:10303800002BE4D1FFF77AFF72B600BF00231846D1
:103048001037BD4680BD00BF0AD7A33C310B002412
:10305800320B002420A0000810E000E0000000006F
:1030680080B483B000AF87ED000B97ED007BB0EE26
:10307800C77B9FED0B6BB4EE467BF1EE10FA01DCDB
:10308800002307E07B6803F00043002B01D0FF23F7
:1030980000E0012318460C37BD465DF8047B7047F5
:1030A800FFFFFFFFFFFFEF7F80B483B000AF87ED26
:1030B800000B97ED006B97ED007BB4EE476BF1EEDC
:1030C80010FA01D7012300E0002318460C37BD464B
:1030D8005DF8047B7047000080B400AF00BFBD46B8
:1030E8005DF8047B704700BF80B483B000AF03462F
:1030F8003960FB80B7F90630002B0ADB3B68DAB28F
:103108000C49B7F906301201D2B20B4483F80023F8
:103118000AE03B68DAB20849FB8803F00F03043B76
:103128001201D2B20B441A7600BF0C37BD465DF8C7
:10313800047B704700E100E000ED00E080B582B05C
:1031480000AF78607B68013BB3F1807F01D3012336
:103158000FE00A4A7B68013B53600F214FF0FF30B4
:10316800FFF7C2FF054B00229A60044B07221A6042
:10317800002318460837BD4680BD00BF10E000E0B8
:1031880080B500AFBFF34F8F00BFBFF36F8F00BF95
:103198000B4B1A680B4B1B689A4202D3084B002250
:1031A8001A60074B1B685A1C05490A60002B05D199
:1031B80072B600BFFFF7C2FE62B600BF00BF80BD97
:1031C800340B0024380B002480B400AF054B5B6837
:1031D800044A43F08053536000BFBD465DF8047B4A
:1031E800704700BF00ED00E080B584B000AF87ED08
:1031F800010A234B1B6807EE903AB8EE677AD7EDC1
:10320800017A67EE277AFCEEE77A17EE903AFB60D0
:10321800FB68B3F1807F18D3FB6807EE903AB8EEED
:10322800677ADFED186AC7EE267AFCEEE77A17EEC2
:10323800903A0133144A1360134B1B68FA68B2FBC7
:10324800F3F31846FFF77AFF05E00F4B00221A60E8
:10325800F868FFF773FF0D4B00221A600C4A0D4BFC
:103268001A600F216FF00400FFF73EFF0F216FF087
:103278000100FFF739FF00BF1037BD4680BD00BF12
:1032880010000024FFFF7F4B380B0024340B002470
:10329800893100083C0B0024EFF3008001B5EFF3FF
:1032A800118003B41EF0100F08BFB0EE400A0A48A0
:1032B800006803B488B004A006904FF080700790AF
:1032C8006FF006008646704703BC8047BFF36F8FD8
:1032D80000DFFEE700BF00003C0B00241EF0100FCB
:1032E80008BFB0EE400A1EF0040F0CBFEFF30880D1
:1032F800EFF30980816911F8020C10B101280DD093
:103308000BE01EF0100F0CBF1AB008B003BC80F31E
:10331800118803BC80F300880847FEE74EF6145175
:10332800CEF200010A6842F001020A607047F4E731
:1033380000BF00BF80B483B000AF786039603B68DD
:103348001A047B689A6100BF0C37BD465DF8047BA0
:103358007047000080B485B000AF78600A4BD3F89E
:10336800E02009497B681343C1F8E030064BD3F8E5
:10337800E0207B681340FB60FB6800BF1437BD4644
:103388005DF8047B704700BF0044025880B59CB0CC
:1033980000AF07F124034C220021184606F0EEFD89
:1033A8003B1D20220021184606F0E8FD022003F00C
:1033B800D7FB00233B60324BDB6A314A23F0010321
:1033C800D3622F4BDB6A03F001033B602D4B9B69F3
:1033D80023F440432B4A43F480439361294B9B6970
:1033E80003F440433B603B6800BF264B9B6903F4F2
:1033F8000053B3F5005FF8D102237B6201233B63DE
:1034080040237B630223BB640023FB6404233B65E6
:1034180009237B650223BB650223FB6502233B6608
:103428000C237B660223BB664FF44063FB6607F1FF
:103438002403184600F080FE0346002B01D000F05C
:1034480069F93F237B600023BB600023FB600023F6
:103458003B6100237B614023BB610023FB610023A8
:103468003B623B1D0121184601F094FA0346002BEC
:1034780001D000F04FF900BF7037BD4680BD00BFD6
:10348800000400580048025880B500AF274B284A6E
:103498001A60264B4FF480025A60244B00229A602F
:1034A800224B0722DA60214B00221A611F4B0022AF
:1034B8005A611E4B4FF080629A611C4B4FF0E042FC
:1034C800DA611A4B00221A62184B00225A62174B13
:1034D80000229A62154B0022DA62144B00225A63CA
:1034E800124B00229A63114B0022DA630F4B002221
:1034F8001A640E4B00225A640C4B00229A640B4B40
:103508000022DA64094B00221A65084B00225A652A
:10351800064B00229A65054800F0ECFC0346002B98
:1035280001D000F0F7F800BF80BD00BF400B0024B9
:103538000030014080B500AF0E4B0F4A1A600D4BAA
:1035480042F2CF025A600B4B00229A60094B2722A5
:10355800DA60084B00221A61064B00229A6105487E
:1035680003F0A0FB0346002B01D000F0D3F800BF06
:1035780080BD00BFC80B0024001C004080B500AF10
:10358800224B234A1A60214B4FF4E1325A601F4BF9
:1035980000229A601D4B0022DA601C4B00221A613F
:1035A8001A4B0C225A61194B00229A61174B0022C0
:1035B800DA61164B00221A62144B00225A62134B2E
:1035C80000229A62114803F03DFE0346002B01D009
:1035D80000F0A0F800210D4804F0DAFD0346002BA6
:1035E80001D000F097F80021084804F00FFE0346C8
:1035F800002B01D000F08EF8044804F090FD03463B
:10360800002B01D000F086F800BF80BD140C002408
:103618000048004080B586B000AF3B4600221A60E3
:103628005A609A60DA601A615A610420FFF792FEC4
:103638000120FFF78FFE0220FFF78CFE0820FFF71E
:1036480089FE1020FFF786FE01212548FFF772FE4C
:103658004FF480412348FFF76DFE02212248FFF70F
:1036680069FE4FF400533B6000237B6000233B61FD
:103678003B4619461D4800F0EFFA01233B60012341
:103688007B600023BB600023FB6000233B613B465B
:103698001946134800F0E0FA4FF480433B600123D9
:1036A8007B600023BB600023FB6000233B613B463B
:1036B80019460C4800F0D0FA02233B6001237B60D6
:1036C8000023BB600023FB6000233B613B46194697
:1036D800054800F0C1FA00BF1837BD4680BD00BFDD
:1036E80000040258000C0258001002580008025842
:1036F80080B582B000AF78607B681B68044A93424B
:1037080001D103F0A3FA00BF0837BD4680BD00BF52
:103718000000014080B400AF72B600BF00BFFDE7F3
:1037280080B400AF00BFFDE780B400AF00BFFDE785
:1037380080B400AF00BFFDE780B400AF00BFFDE775
:1037480080B400AF00BFFDE780B400AF00BFBD4646
:103758005DF8047B7047000080B500AF024803F0B5
:1037680071FB00BF80BD00BFA40C002480B500AF72
:10377800024803F067FB00BF80BD00BFC80B0024F0
:1037880080B483B000AF0A4BD3F8F430084A43F052
:103798000203C2F8F430064BD3F8F43003F0020306
:1037A8007B607B6800BF0C37BD465DF8047B7047C3
:1037B8000044025880B5BAB000AF786007F1D4036E
:1037C80000221A605A609A60DA601A6107F11803D9
:1037D800BC220021184606F0D1FB7B681B68364ADC
:1037E800934265D14FF48053BB6100237B6707F197
:1037F8001803184601F09CFC0346002B01D0FFF784
:1038080089FF2E4BD3F8F0302C4A43F48053C2F88A
:10381800F0302A4BD3F8F03003F480537B617B6996
:10382800264BD3F8E030254A43F00103C2F8E030D4
:10383800224BD3F8E03003F001033B613B691F4B97
:10384800D3F8E0301D4A43F00203C2F8E0301B4BC6
:10385800D3F8E03003F00203FB60FB686023C7F88D
:10386800D4300223C7F8D8300023C7F8DC3000234F
:10387800C7F8E0300523C7F8E43007F1D403194648
:103888000F4802F0BDFF2023C7F8D4300223C7F841
:10389800D8300023C7F8DC300023C7F8E030052310
:1038A800C7F8E43007F1D4031946064802F0A8FF28
:1038B80000BFE837BD4680BD0030014000440258D3
:1038C800000002580004025880B584B000AF786048
:1038D8007B681B680E4A934216D10E4BD3F8E8302A
:1038E8000C4A43F08003C2F8E8300A4BD3F8E830BA
:1038F80003F08003FB60FB68002200212C2000F00D
:10390800D1FA2C2000F0E8FA00BF1037BD4680BD80
:10391800001C00400044025880B5B8B000AF786081
:1039280007F1CC0300221A605A609A60DA601A61C3
:1039380007F11003BC220021184606F01FFB7B6824
:103948001B68254A934242D102233B610023C7F8F2
:10395800843007F11003184601F0EAFB0346002BF8
:1039680001D0FFF7D7FE1D4BD3F8E8301B4A43F4CC
:103978008023C2F8E830194BD3F8E83003F48023E9
:10398800FB60FB68154BD3F8E030144A43F008039A
:10399800C2F8E030114BD3F8E03003F00803BB6005
:1039A800BB684FF44073C7F8CC300223C7F8D03057
:1039B8000023C7F8D4300023C7F8D8300723C7F846
:1039C800DC3007F1CC031946054802F019FF00BFA7
:1039D800E037BD4680BD00BF0048004000440258A3
:1039E800000C025880B58EB000AF78607B680F2B52
:1039F80042D800227968192000F054FA192000F002
:103A08006BFA234A7B681360224BD3F8F030214AC3
:103A180043F00103C2F8F0301E4BD3F8F03003F046
:103A28000103BB60BB6807F10C0207F110031146E4
:103A3800184601F03BFB01F023FB78637B6B164AC9
:103A4800A2FB03239B0C013B3B63144B144A1A60F3
:103A5800124B40F2E732DA60104A3B6B53600F4B6F
:103A680000221A610D4B00229A600C4803F01AF9E3
:103A78000346002B07D101E0012305E0074803F0C6
:103A880069F9034600E0012318463837BD4680BD72
:103A9800080000240044025883DE1B43A40C0024C1
:103AA8000000014080B485B000AFF860B9607A606A
:103AB800FB681968BB6803FB03F213465B001344F9
:103AC800DB4301EA0302BB6803FB03F3796801FBEC
:103AD80003F31A43FB681A6000BF1437BD465DF84C
:103AE800047B704780B485B000AFF860B9607A6035
:103AF800FB685A68BB68DB431A40BB68796801FBFE
:103B080003F31A43FB685A6000BF1437BD465DF8DB
:103B1800047B704780B485B000AFF860B9607A6004
:103B2800FB689968BB6803FB03F213465B00134408
:103B3800DB4301EA0302BB6803FB03F3796801FB7B
:103B480003F31A43FB689A6000BF1437BD465DF85B
:103B5800047B704780B485B000AFF860B9607A60C4
:103B6800FB68D968BB6803FB03F213465B00134488
:103B7800DB4301EA0302BB6803FB03F3796801FB3B
:103B880003F31A43FB68DA6000BF1437BD465DF8DB
:103B9800047B704780B485B000AFF860B9607A6084
:103BA800FB68196ABB6803FB03F3BA6802FB03F3FB
:103BB800BA6803FB02F213461B019B1ADB4301EAB6
:103BC8000302BB6803FB03F3B96801FB03F3B9689D
:103BD80001FB03F3796801FB03F31A43FB681A62DC
:103BE80000BF1437BD465DF8047B704780B485B0CC
:103BF80000AFF860B9607A60FB68596ABB681B0A55
:103C0800BA68120A02FB03F3BA68120A02FB03F34A
:103C1800BA68120A03FB02F213461B019B1ADB4324
:103C280001EA0302BB681B0AB968090A01FB03F32E
:103C3800B968090A01FB03F3B968090A01FB03F330
:103C4800796801FB03F31A43FB685A6200BF143713
:103C5800BD465DF8047B704780B588B000AF7860DA
:103C680039603B681B683B613B6993FAA3F3FB60CF
:103C7800FB687B617B69002B01D1202303E07B6912
:103C8800B3FA83F3DBB2FB6148E03B681A680121B1
:103C9800FB6901FA03F31340BB61BB69002B3AD0FF
:103CA8003B685B68012B03D03B685B68022B0ED135
:103CB8003B689B681A46B9697868FFF72BFF3B6831
:103CC80019683B68DB681A467868FFF70BFF3B68A2
:103CD8001B691A46B9697868FFF73CFF3B685B685F
:103CE800022B11D1BB69FF2B07D83B685B691A46C9
:103CF800B9697868FFF74EFF06E03B685B691A46CA
:103D0800B9697868FFF772FF3B685B681A46B9695A
:103D18007868FFF7C7FEFB690133FB613B681A68E7
:103D2800FB6922FA03F3002BAFD100231846203792
:103D3800BD4680BD80B485B000AF78607B6803F075
:103D48000703FB600B4BDB68BB60BA684FF6FF03E9
:103D58001340BB60FB681A02BB681A43064B134347
:103D6800BB60044ABB68D36000BF1437BD465DF82A
:103D7800047B704700ED00E00000FA0580B400AF56
:103D8800044BDB681B0A03F007031846BD465DF8C1
:103D9800047B704700ED00E080B483B000AF0346B9
:103DA800FB80B7F90630002B0BDBFB8803F01F0202
:103DB8000749B7F906305B09012000FA02F241F819
:103DC800232000BF0C37BD465DF8047B704700BF59
:103DD80000E100E080B483B000AF03463960FB80A7
:103DE800B7F90630002B0ADB3B68DAB20C49B7F9A1
:103DF80006301201D2B20B4483F800230AE03B6874
:103E0800DAB20849FB8803F00F03043B1201D2B26F
:103E18000B441A7600BF0C37BD465DF8047B70472B
:103E280000E100E000ED00E080B489B000AFF86088
:103E3800B9607A60FB6803F00703FB61FB69C3F1B3
:103E48000703042B28BF0423BB61FB690433062B3B
:103E580002D9FB69033B00E000237B614FF0FF328E
:103E6800BB6902FA03F3DA43BB681A407B699A40DC
:103E78004FF0FF317B6901FA03F3D9437B680B40AC
:103E8800134318462437BD465DF8047B704780B558
:103E980082B000AF78607868FFF74CFF00BF083742
:103EA800BD4680BD80B586B000AF0346B9607A6074
:103EB800FB81FFF763FF78617A68B9687869FFF773
:103EC800B3FF0246B7F90E3011461846FFF782FFD6
:103ED80000BF1837BD4680BD80B582B000AF03462D
:103EE800FB80B7F906301846FFF756FF00BF0837C2
:103EF800BD4680BD80B584B000AF78607B68002B7C
:103F080001D10123F1E07B6800229A627B681B687B
:103F1800784A93420FD07B681B68774A93420AD04D
:103F28007B681B68754A934205D07B68DB680F2B5A
:103F380001D90123D9E0786800F0E2F8F8607B68DD
:103F48001B686C4A93420CD07B681B686A4A934290
:103F580007D07B681B68694A934202D0FB68082B2C
:103F680011D87B681B68634A934209D07B681B6839
:103F7800614A934204D07B681B68604A934204D12B
:103F8800FB68102B01D90123AFE07B6893F88130DF
:103F9800DBB2002B06D17B68002283F8802078688A
:103FA800FFF708FC7B68022283F881207B681B6886
:103FB8001A687B681B6822F001021A607B681B681C
:103FC8009B6803F4F813BB607B689B69B3F1806F4F
:103FD80019D17B685B68B3F5800F03D17B689B6B55
:103FE800002B08D07B685B68002B0CD17B689B6B2F
:103FF800B3F1805F07D17B681B681A687B681B6810
:1040080042F480521A607B68DA697B689B6A1A43BB
:10401800BB681A437B68DB6B42EA03017B68DA689A
:104028007B681B680A439A607B685A6B7B685B6A8B
:104038001A437B689B6B1A437B689B691A437B68AE
:104048001B691A437B685B691A437B681B6A1A43BE
:104058007B685B681A437B68DB6C1A437B689B68E8
:104068001A437B689B6C42EA03017B689A6D7B6804
:104078001B680A43DA607B685B68002B13D17B6896
:104088001B689B6823F4C0527B681B6842F400627B
:104098009A607B681B689B6823F4C0627B681B6816
:1040A80042F480629A607B681B681A6D7B681B68A3
:1040B80022F001021A657B685B6803F48003002B19
:1040C8000AD07B681B68DB6823F000417B685A6D67
:1040D8007B681B680A43DA607B680022C3F8842087
:1040E8007B68012283F88120002318461037BD46DB
:1040F80080BD00BF0030014000380040003C004057
:1041080080B485B000AF78607B68DB6B5B090133F6
:10411800FB607B68DB680133BB60BB680733DB0887
:10412800BB60BB68FA6802FB03F318461437BD4648
:104138005DF8047B7047000080B58CB000AF7860F4
:104148007B68002B02D1012300F01DBC7B681B6833
:1041580003F00103002B00F08780994B1B6903F0E3
:104168003803FB62964B9B6ABB62FB6A102B07D035
:10417800FB6A182B10D1BB6A03F00303022B0BD187
:104188008F4B1B6803F40033002B6CD07B685B6893
:10419800002B68D10123F6E37B685B68B3F5803FA9
:1041A80006D1874B1B68864A43F4803313602EE0A0
:1041B8007B685B68002B0CD1814B1B68804A23F419
:1041C800803313607E4B1B687D4A23F48023136081
:1041D8001DE07B685B68B3F5A02F0CD1784B1B689A
:1041E800774A43F480231360754B1B68744A43F481
:1041F800803313600BE0724B1B68714A23F48033E1
:1042080013606F4B1B686E4A23F4802313607B682E
:104218005B68002B13D002F02DFD786208E002F0F5
:1042280029FD02467B6AD31A642B01D90323AAE32A
:10423800634B1B6803F40033002BF0D014E002F04A
:1042480019FD786208E002F015FD02467B6AD31A70
:10425800642B01D9032396E3594B1B6803F40033FD
:10426800002BF0D100E000BF7B681B6803F002035D
:10427800002B00F0CB80524B1B6903F038033B62E4
:104288004F4B9B6AFB613B6A002B07D03B6A182B9C
:1042980056D1FB6903F00303002B51D1484B1B682F
:1042A80003F00403002B05D07B68DB68002B01D1E9
:1042B800012368E3424B1B6823F019027B68DB6823
:1042C8003F4913430B6002F0D5FC786208E002F026
:1042D800D1FC02467B6AD31A022B01D9032352E38D
:1042E800374B1B6803F00403002BF0D002F0CEFC20
:1042F800034641F20302934217D87B681B69402B9F
:1043080008D12F4B5B6823F47C332D4A43F40033E8
:1043180053607BE02A4B5B6823F47C327B681B6923
:104328001B03274913434B6070E0254B5B6823F060
:10433800FE427B681B691B06214913434B6065E0FD
:104348007B68DB68002B48D01D4B1B6823F01902E3
:104358007B68DB681A4913430B6002F08BFC7862B8
:1043680008E002F087FC02467B6AD31A022B01D9C7
:10437800032308E3124B1B6803F00403002BF0D05F
:1043880002F084FC034641F2030293421AD87B6888
:104398001B69402B08D10A4B5B6823F47C33084A1D
:1043A80043F40033536031E0054B5B6823F47C32FF
:1043B8007B681B691B03024913434B6026E000BF5F
:1043C800004402589A4B5B6823F0FE427B681B69E5
:1043D8001B06974913434B6018E0954B1B68944A9A
:1043E80023F00103136002F045FC786208E002F054
:1043F80041FC02467B6AD31A022B01D90323C2E28D
:104408008B4B1B6803F00403002BF0D17B681B68FF
:1044180003F01003002B00F0A980854B1B6903F003
:104428003803BB61824B9B6A7B61BB69082B07D051
:10443800BB69182B3AD17B6903F00303012B35D1F3
:104448007B4B1B6803F48073002B05D07B68DB690A
:10445800802B01D0012396E202F018FC034641F2BA
:104468000302934217D87B681B6A202B08D1704B34
:104478005B6823F0F8436E4A43F08043536075E06D
:104488006B4B5B6823F0F8427B681B6A9B066849A4
:1044980013434B606AE0664BDB6823F07C527B6811
:1044A8001B6A1B0662491343CB605FE07B68DB69CC
:1044B800002B42D05E4B1B685D4A43F080031360BB
:1044C80002F0D8FB786208E002F0D4FB02467B6A6F
:1044D800D31A022B01D9032355E2554B1B6803F469
:1044E8008073002BF0D002F0D1FB034641F20302A7
:1044F800934217D87B681B6A202B08D14C4B5B680A
:1045080023F0F8434A4A43F0804353602EE0484B77
:104518005B6823F0F8427B681B6A9B064449134397
:104528004B6023E0424BDB6823F07C527B681B6ABC
:104538001B063F491343CB6018E03D4B1B683C4AC0
:1045480023F08003136002F095FB786208E002F024
:1045580091FB02467B6AD31A022B01D9032312E28C
:10456800334B1B6803F48073002BF0D17B681B6806
:1045780003F00803002B36D07B685B69002B19D049
:104588002B4B5B6F2A4A43F00103536702F072FB1F
:10459800786208E002F06EFB02467B6AD31A022BAF
:1045A80001D90323EFE1224B5B6F03F00203002BD9
:1045B800F0D018E01E4B5B6F1D4A23F001035367D0
:1045C80002F058FB786208E002F054FB02467B6A6E
:1045D800D31A022B01D90323D5E1154B5B6F03F0E6
:1045E8000203002BF0D17B681B6803F02003002B2B
:1045F80039D07B689B69002B1CD00D4B1B680C4A7B
:1046080043F48053136002F035FB786208E002F04F
:1046180031FB02467B6AD31A022B01D90323B2E18C
:10462800034B1B6803F40053002BF0D01BE000BFC2
:10463800004402589B4B1B689A4A23F4805313602A
:1046480002F018FB786208E002F014FB02467B6A6D
:10465800D31A022B01D9032395E1924B1B6803F46B
:104668000053002BF0D17B681B6803F00403002B78
:1046780000F081808C4B1B688B4A43F48073136075
:1046880002F0F8FA786208E002F0F4FA02467B6A6F
:10469800D31A642B01D9032375E1834B1B6803F4F8
:1046A8008073002BF0D07B689B68012B06D17D4B73
:1046B8001B6F7C4A43F0010313672DE07B689B68FE
:1046C800002B0CD1774B1B6F764A23F0010313673D
:1046D800744B1B6F734A23F0040313671CE07B6859
:1046E8009B68052B0CD16F4B1B6F6E4A43F004037C
:1046F80013676C4B1B6F6B4A43F0010313670BE0A6
:10470800684B1B6F674A23F001031367654B1B6FE8
:10471800644A23F0040313677B689B68002B15D059
:1047280002F0A8FA78620AE002F0A4FA02467B6A6C
:10473800D31A41F28832934201D9032323E1594B1A
:104748001B6F03F00203002BEED014E002F092FA84
:1047580078620AE002F08EFA02467B6AD31A41F2C6
:104768008832934201D903230DE14E4B1B6F03F0AE
:104778000203002BEED17B685B6A002B00F00281FC
:10478800484B1B6903F03803182B00F0BD807B6889
:104798005B6A022B40F09E80424B1B68414A23F023
:1047A8008073136002F066FA786208E002F062FA39
:1047B80002467B6AD31A022B01D90323E3E0394B63
:1047C8001B6803F00073002BF0D1364B9A6A374B05
:1047D80013407A68916A7A68D26A12010A433149A9
:1047E80013438B627B681B6B013BC3F308027B6836
:1047F8005B6B013B5B029BB21A437B689B6B013B83
:104808001B0403F4FE031A437B68DB6B013B1B06A6
:1048180003F0FE43234913430B63224BDB6A214A0F
:1048280023F00103D3621F4B5A6B214B13407A6864
:10483800926CD2001B4913434B631A4BDB6A23F07B
:104848000C027B681B6C17491343CB62154BDB6A60
:1048580023F002027B685B6C12491343CB62114B55
:10486800DB6A104A43F48033D3620E4BDB6A0D4A8D
:1048780043F40033D3620B4BDB6A0A4A43F48023C8
:10488800D362084BDB6A074A43F00103D362054B46
:104898001B68044A43F08073136002F0EBF97862F6
:1048A80011E000BF00440258004802580CFCFFFF0A
:1048B8000700FFFF02F0DEF902467B6AD31A022BDB
:1048C80001D903235FE0324B1B6803F00073002B10
:1048D800F0D057E02E4B1B682D4A23F080731360ED
:1048E80002F0C8F9786208E002F0C4F902467B6A6F
:1048F800D31A022B01D9032345E0254B1B6803F08B
:104908000073002BF0D13DE0214B9B6A3B61204BAB
:104918001B6BFB607B685B6A012B31D03B6903F042
:1049280003027B689B6A9A422AD13B691B0903F000
:104938003F027B68DB6A9A4222D1FB68C3F3080214
:104948007B681B6B013B9A421AD1FB685B0A03F038
:104958007F027B685B6B013B9A4211D1FB681B0CA1
:1049680003F07F027B689B6B013B9A4208D1FB688E
:104978001B0E03F07F027B68DB6B013B9A4201D080
:10498800012300E0002318463037BD4680BD00BF34
:104998000044025880B586B000AF786039607B6803
:1049A800002B01D101239CE18A4B1B6803F00F0304
:1049B8003A689A4210D9874B1B6823F00F02854941
:1049C8003B6813430B60834B1B6803F00F033A6883
:1049D8009A4201D0012384E17B681B6803F0040339
:1049E800002B10D07B681A697B4B9B6903F070031E
:1049F8009A4208D9784B9B6923F070027B681B693F
:104A0800754913438B617B681B6803F00803002B0F
:104A180010D07B685A69704BDB6903F070039A42C7
:104A280008D96D4BDB6923F070027B685B696A49C2
:104A38001343CB617B681B6803F01003002B10D075
:104A48007B689A69644BDB6903F4E0639A4208D98E
:104A5800614BDB6923F4E0627B689B695E49134321
:104A6800CB617B681B6803F02003002B10D07B68A8
:104A7800DA69594B1B6A03F070039A4208D9564BFE
:104A88001B6A23F070027B68DB69534913430B628E
:104A98007B681B6803F00203002B10D07B68DA6880
:104AA8004D4B9B6903F00F039A4208D94A4B9B6907
:104AB80023F00F027B68DB68474913438B617B68EF
:104AC8001B6803F00103002B55D0434B9B6923F46B
:104AD80070627B689B68404913438B617B685B68A5
:104AE800022B07D13C4B1B6803F40033002B21D168
:104AF8000123F6E07B685B68032B07D1364B1B6804
:104B080003F00073002B15D10123EAE07B685B6892
:104B1800012B07D1304B1B6803F48073002B09D19C
:104B28000123DEE02C4B1B6803F00403002B01D1AA
:104B38000123D6E0284B1B6923F007027B685B68DA
:104B4800254913430B6102F095F878610AE002F0F9
:104B580091F802467B69D31A41F28832934201D90F
:104B68000323BEE01C4B1B6903F038027B685B68BB
:104B7800DB009A42EBD17B681B6803F00203002B31
:104B880010D07B68DA68144B9B6903F00F039A42D4
:104B980008D2114B9B6923F00F027B68DB680E4932
:104BA80013438B610B4B1B6803F00F033A689A425F
:104BB80014D2084B1B6823F00F0206493B681343C5
:104BC8000B60044B1B6803F00F033A689A4205D048
:104BD800012386E000200052004402587B681B68CD
:104BE80003F00403002B10D07B681A693F4B9B69C4
:104BF80003F070039A4208D23C4B9B6923F0700281
:104C08007B681B69394913438B617B681B6803F018
:104C18000803002B10D07B685A69344BDB6903F01A
:104C280070039A4208D2314BDB6923F070027B682B
:104C38005B692E491343CB617B681B6803F0100343
:104C4800002B10D07B689A69284BDB6903F4E0637A
:104C58009A4208D2254BDB6923F4E0627B689B69A2
:104C680022491343CB617B681B6803F02003002BA8
:104C780010D07B68DA691D4B1B6A03F070039A42F7
:104C880008D21A4B1B6A23F070027B68DB6917494C
:104C980013430B6200F034F80246144B9B691B0A5D
:104CA80003F00F031249CB5C03F01F0322FA03F34E
:104CB8003B610E4B9B6903F00F030D4AD35C03F075
:104CC8001F033A6922FA03F30A4A13600A4A3B6946
:104CD80013600A4B1B681846FEF784FE0346FB73F5
:104CE800FB7B18461837BD4680BD00BF00440258FC
:104CF80000A3000814000024100000240800002469
:104D080080B489B000AFB34B1B6903F03803182B8C
:104D180000F2558101A252F823F000BF894D000826
:104D2800C74F0008C74F0008C74F0008C74F000803
:104D3800C74F0008C74F0008C74F0008AF4D00080D
:104D4800C74F0008C74F0008C74F0008C74F0008E3
:104D5800C74F0008C74F0008C74F0008B54D0008E7
:104D6800C74F0008C74F0008C74F0008C74F0008C3
:104D7800C74F0008C74F0008C74F0008BB4D0008C1
:104D8800944B1B6803F02003002B09D0914B1B6840
:104D9800DB0803F00303904A22FA03F3BB6111E135
:104DA8008D4BBB610EE18D4BBB610BE18C4BBB6145
:104DB80008E1884B9B6A03F003037B61854B9B6A80
:104DC8001B0903F03F033B61824BDB6A03F00103DD
:104DD800FB60804B5B6BDB08C3F30C03FA6802FBD8
:104DE80003F307EE903AF8EE677AC7ED027A3B696B
:104DF800002B00F0E1807B69022B00F083807B6947
:104E0800022B00F2A1807B69002B03D07B69012B68
:104E180056D099E06F4B1B6803F02003002B2DD070
:104E28006C4B1B68DB0803F003036B4A22FA03F39D
:104E38007B607B6807EE903AF8EE676A3B6907EE9D
:104E4800903AF8EE677A86EEA77A624B1B6BC3F34B
:104E5800080307EE903AF8EE676A97ED026ADFED0D
:104E6800615AC6EE257A76EEA77AF7EE006A77EEF3
:104E7800A67A67EE277AC7ED077A87E03B6907EEDF
:104E8800903AF8EE677ADFED586A86EEA77A514BCA
:104E98001B6BC3F3080307EE903AF8EE676A97EDC9
:104EA800026ADFED505AC6EE257A76EEA77AF7EE5B
:104EB800006A77EEA67A67EE277AC7ED077A65E08B
:104EC8003B6907EE903AF8EE677ADFED486A86EEBE
:104ED800A77A404B1B6BC3F3080307EE903AF8EE32
:104EE800676A97ED026ADFED3F5AC6EE257A76EEDD
:104EF800A77AF7EE006A77EEA67A67EE277AC7ED0B
:104F0800077A43E03B6907EE903AF8EE677ADFEDFF
:104F1800386A86EEA77A2F4B1B6BC3F3080307EE9C
:104F2800903AF8EE676A97ED026ADFED2E5AC6EE00
:104F3800257A76EEA77AF7EE006A77EEA67A67EE1C
:104F4800277AC7ED077A21E03B6907EE903AF8EE39
:104F5800677ADFED266A86EEA77A1E4B1B6BC3F3D2
:104F6800080307EE903AF8EE676A97ED026ADFEDFC
:104F78001D5AC6EE257A76EEA77AF7EE006A77EE26
:104F8800A67A67EE277AC7ED077A00BF114B1B6B2D
:104F98005B0A03F07F0301333B603B6807EE903AFE
:104FA800B8EE677AD7ED076AC6EE877AFCEEE77A3D
:104FB80017EE903ABB6105E00023BB6102E0074BA6
:104FC800BB6100BFBB6918462437BD465DF8047B4A
:104FD800704700BF004402580090D00300093D000C
:104FE80040787D01000000460024744C0024744A77
:104FF80020BCBE4B80B582B000AFFFF781FE0246F1
:10500800104B9B691B0A03F00F030F49CB5C03F09D
:105018001F0322FA03F37B600A4B9B6903F00F031B
:10502800094AD35C03F01F037A6822FA03F3074A9C
:105038001360074A7B681360044B1B6818460837DF
:10504800BD4680BD0044025800A300081400002497
:105058001000002480B500AFFFF7CCFF0246064BD6
:10506800DB691B0903F007030449CB5C03F01F034A
:1050780022FA03F3184680BD0044025800A3000832
:1050880080B500AFFFF7B6FF0246064BDB691B0A87
:1050980003F007030449CB5C03F01F0322FA03F370
:1050A800184680BD0044025800A3000880B483B0AD
:1050B80000AF786039607B683F221A601A4B1B6921
:1050C80003F007027B685A60174B9B6903F4706210
:1050D8007B689A60144B9B6903F00F027B68DA6067
:1050E800114B9B6903F070027B681A610E4BDB69F8
:1050F80003F070027B685A610B4BDB6903F4E062D2
:105108007B689A61084B1B6A03F070027B68DA615E
:10511800064B1B6803F00F023B681A6000BF0C3790
:10512800BD465DF8047B70470044025800200052D9
:1051380080B586B000AF78600023FB750023BB758F
:105148007B681B6803F00063002B3FD07B685B6EB5
:10515800B3F5401F2AD0B3F5401F24D8B3F5001F7C
:1051680018D0B3F5001F1ED8002B03D0B3F5801F4D
:1051780007D018E0A34BDB6AA24A43F40033D3629A
:1051880015E07B6804330221184601F0D5F903467F
:10519800FB750CE07B6824330221184601F07EFA87
:1051A8000346FB7503E00123FB7500E000BFFB7DB0
:1051B800002B09D1934B1B6D23F440127B685B6E67
:1051C800904913430B6501E0FB7DBB757B681B6849
:1051D80003F48073002B3DD07B685B6D042B26D8CD
:1051E80001A252F823F000BF05520008135200082C
:1051F800255200083D5200083D520008814BDB6AE9
:10520800804A43F40033D36215E07B6804330021FD
:10521800184601F091F90346FB750CE07B682433CE
:105228000021184601F03AFA0346FB7503E0012312
:10523800FB7500E000BFFB7D002B09D1714B1B6D96
:1052480023F007027B685B6D6E4913430B6501E031
:10525800FB7DBB757B681B6803F40073002B42D091
:105268007B689B6DB3F5807F2BD0B3F5807F25D805
:10527800C02B28D0C02B21D8802B16D0802B1DD82E
:10528800002B02D0402B07D018E05E4BDB6A5D4A4A
:1052980043F40033D36217E07B68043300211846D7
:1052A80001F04AF90346FB750EE07B6824330021C0
:1052B800184601F0F3F90346FB7505E00123FB7579
:1052C80002E000BF00E000BFFB7D002B09D14D4B81
:1052D8001B6D23F4E0727B689B6D4A4913430B6591
:1052E80001E0FB7DBB757B681B6803F48063002BC2
:1052F80049D07B68D3F8A430B3F5000F30D0B3F5AC
:10530800000F2AD8B3F5C00F2CD0B3F5C00F24D89E
:10531800B3F5800F18D0B3F5800F1ED8002B03D03B
:10532800B3F5001F07D018E0364BDB6A354A43F463
:105338000033D36217E07B6804330021184601F07C
:10534800FBF80346FB750EE07B6824330021184602
:1053580001F0A4F90346FB7505E00123FB7502E0A3
:1053680000BF00E000BFFB7D002B0AD1254B9B6DE1
:1053780023F460027B68D3F8A430224913438B6579
:1053880001E0FB7DBB757B681B6803F40063002BA1
:105398004BD07B68D3F8A830B3F1806F30D0B3F12D
:1053A800806F2AD8B3F1407F2ED0B3F1407F24D844
:1053B800B3F1007F18D0B3F1007F1ED8002B03D0C3
:1053C800B3F1807F07D018E00E4BDB6A0D4A43F437
:1053D8000033D36219E07B6804330021184601F0DA
:1053E800ABF80346FB7510E07B68243300211846B0
:1053F80001F054F90346FB7507E00123FB7504E04F
:1054080000BF02E00044025800BFFB7D002B0AD118
:10541800994B9B6D23F0E0627B68D3F8A8309649DE
:1054280013438B6501E0FB7DBB757B681B6803F04C
:105438000073002B32D07B689B6C302B1CD0302B38
:1054480017D8202B0CD0202B13D8002B16D0102BBC
:105458000FD1894BDB6A884A43F40033D3620EE0EC
:105468007B6804330221184601F066F80346FB7591
:1054780005E00123FB7502E000BF00E000BFFB7DF3
:10548800002B09D17C4BDB6C23F030027B689B6CD2
:1054980079491343CB6401E0FB7DBB757B681B68CE
:1054A80003F48053002B47D07B68DB6DB3F5804F46
:1054B80030D0B3F5804F2AD8B3F5405F2CD0B3F580
:1054C800405F24D8B3F5005F18D0B3F5005F1ED84D
:1054D800002B03D0B3F5805F07D018E0664BDB6A7A
:1054E800654A43F40033D36217E07B680433002134
:1054F800184601F021F80346FB750EE07B6824335B
:105508000021184601F0CAF80346FB7505E001239F
:10551800FB7502E000BF00E000BFFB7D002B09D156
:10552800554B1B6D23F4E0427B68DB6D52491343F6
:105538000B6501E0FB7DBB757B681B6803F40053BA
:10554800002B49D07B681B6EB3F5A02F2ED0B3F586
:10555800A02F28D8B3F5802F2AD0B3F5802F22D8D2
:10556800B3F5403F26D0B3F5403F1CD8B3F5003F14
:1055780010D0B3F5003F16D8002B1DD0B3F5803FEF
:1055880011D17B6804330121184600F0D5FF03468A
:10559800FB7512E07B6824330121184601F07EF880
:1055A8000346FB7509E00123FB7506E000BF04E034
:1055B80000BF02E000BF00E000BFFB7D002B09D167
:1055C8002D4B1B6D23F4E0227B681B6E2A49134385
:1055D8000B6501E0FB7DBB757B681B6803F48043AA
:1055E800002B4DD07B68D3F8AC30B3F1A04F2ED050
:1055F800B3F1A04F28D8B3F1804F2AD0B3F1804F30
:1056080022D8B3F1405F26D0B3F1405F1CD8B3F184
:10561800005F10D0B3F1005F16D8002B1DD0B3F196
:10562800805F11D17B6804330121184600F084FFA4
:105638000346FB7512E07B6824330121184601F00C
:105648002DF80346FB7509E00123FB7506E000BF52
:1056580004E000BF02E000BF00E000BFFB7D002BBC
:105668000CD1054B9B6D23F0E0427B68D3F8AC303E
:10567800014913438B6503E000440258FB7DBB7569
:105688007B681B6803F40043002B2FD07B68DB6E1C
:10569800B3F1005F0ED0B3F1005F14D8002B15D022
:1056A800B3F1805F0FD1AF4BDB6AAE4A43F40033EE
:1056B800D3620CE07B6804330121184600F03CFFFC
:1056C8000346FB7503E00123FB7500E000BFFB7D8B
:1056D800002B09D1A34B1B6D23F040527B68DB6E76
:1056E800A04913430B6501E0FB7DBB757B681B6814
:1056F80003F08073002B32D07B685B6C032B1BD8C4
:1057080001A252F823F000BF4757000821570008AC
:105718002F57000847570008924BDB6A914A43F419
:105728000033D3620CE07B6804330221184600F092
:1057380003FF0346FB7503E00123FB7500E000BF90
:10574800FB7D002B09D1874BDB6C23F003027B68C0
:105758005B6C84491343CB6401E0FB7DBB757B68BC
:105768001B6803F48003002B00F086807E4B1B68C7
:105778007D4A43F48073136001F07CFA386109E0D4
:1057880001F078FA02463B69D31A642B02D9032345
:10579800FB7505E0744B1B6803F48073002BEFD096
:1057A800FB7D002B66D16F4B1A6F7B68D3F8B03046
:1057B800534003F44073002B13D06A4B1B6F23F440
:1057C8004073FB60674B1B6F664A43F48033136773
:1057D800644B1B6F634A23F480331367614AFB6889
:1057E80013677B68D3F8B030B3F5807F15D101F02B
:1057F80041FA38610BE001F03DFA02463B69D31AE1
:1058080041F28832934202D90323FB7505E0554BD8
:105818001B6F03F00203002BEDD0FB7D002B26D17C
:105828007B68D3F8B03003F44073B3F5407F0DD1F3
:105838004C4B1B6923F47C527B68D3F8B0301909B0
:105848004A4B0B40474913430B6105E0454B1B6925
:10585800444A23F47C531361424B1A6F7B68D3F894
:10586800B030C3F30B033F4913430B6704E0FB7DE0
:10587800BB7501E0FB7DBB757B681B6803F001030A
:10588800002B00F085807B689B6F282B66D801A2CF
:1058980052F823F07959000865590008655900083D
:1058A80065590008655900086559000865590008D8
:1058B80065590008415900086559000865590008EC
:1058C80065590008655900086559000865590008B8
:1058D80065590008535900086559000865590008BA
:1058E8006559000865590008655900086559000898
:1058F8006559000879590008655900086559000874
:105908006559000865590008655900086559000877
:105918006559000879590008655900086559000853
:105928006559000865590008655900086559000857
:1059380065590008795900087B6804330121184625
:1059480000F0FAFD0346FB7513E07B682433012160
:10595800184600F0A3FE0346FB750AE00123FB7519
:1059680007E000BF0044025800480258CFFFFF007C
:1059780000BFFB7D002B09D1964B5B6D23F03802ED
:105988007B689B6F934913434B6501E0FB7DBB75B7
:105998007B681B6803F00203002B38D07B685B6FC1
:1059A800052B21D801A252F823F000BFF7590008AF
:1059B800CD590008DF590008F7590008F7590008C1
:1059C800F75900087B6804330121184600F0B4FD3C
:1059D8000346FB750CE07B6824330121184600F070
:1059E8005DFE0346FB7503E00123FB7500E000BF85
:1059F800FB7D002B09D1774B5B6D23F007027B6899
:105A08005B6F744913434B6501E0FB7DBB757B6895
:105A18001B6803F00403002B3AD07B68D3F890305E
:105A2800052B21D801A252F823F000BF775A0008AD
:105A38004D5A00085F5A0008775A0008775A00083C
:105A4800775A00087B6804330121184600F074FD7A
:105A58000346FB750CE07B6824330121184600F0EF
:105A68001DFE0346FB7503E00123FB7500E000BF44
:105A7800FB7D002B0AD1574B9B6D23F007027B68F7
:105A8800D3F89030534913438B6501E0FB7DBB7518
:105A98007B681B6803F02003002B4BD07B68D3F88E
:105AA8008C30B3F1A04F2ED0B3F1A04F28D8B3F16A
:105AB800804F2AD0B3F1804F22D8B3F1405F26D06F
:105AC800B3F1405F1CD8B3F1005F10D0B3F1005FB1
